{
  "_format": "hh-sol-artifact-1",
  "contractName": "EtherWallet",
  "sourceName": "contracts/EtherWallet.sol",
  "abi": [
    {
      "inputs": [],
      "stateMutability": "nonpayable",
      "type": "constructor"
    },
    {
      "inputs": [],
      "name": "deposit",
      "outputs": [],
      "stateMutability": "payable",
      "type": "function"
    },
    {
      "inputs": [],
      "name": "myBalance",
      "outputs": [
        {
          "internalType": "uint256",
          "name": "",
          "type": "uint256"
        }
      ],
      "stateMutability": "view",
      "type": "function"
    },
    {
      "inputs": [],
      "name": "owner",
      "outputs": [
        {
          "internalType": "address",
          "name": "",
          "type": "address"
        }
      ],
      "stateMutability": "view",
      "type": "function"
    },
    {
      "inputs": [
        {
          "internalType": "address payable",
          "name": "reciver",
          "type": "address"
        },
        {
          "internalType": "uint256",
          "name": "amount",
          "type": "uint256"
        }
      ],
      "name": "withdraw",
      "outputs": [],
      "stateMutability": "nonpayable",
      "type": "function"
    }
  ],
  "bytecode": "0x608060405234801561001057600080fd5b50336000806101000a81548173ffffffffffffffffffffffffffffffffffffffff021916908373ffffffffffffffffffffffffffffffffffffffff1602179055506103ec806100606000396000f3fe60806040526004361061003f5760003560e01c80638da5cb5b14610044578063c9116b691461006f578063d0e30db01461009a578063f3fef3a3146100a4575b600080fd5b34801561005057600080fd5b506100596100cd565b6040516100669190610215565b60405180910390f35b34801561007b57600080fd5b506100846100f1565b6040516100919190610249565b60405180910390f35b6100a26100f9565b005b3480156100b057600080fd5b506100cb60048036038101906100c691906102d3565b6100fb565b005b60008054906101000a900473ffffffffffffffffffffffffffffffffffffffff1681565b600047905090565b565b60008054906101000a900473ffffffffffffffffffffffffffffffffffffffff1673ffffffffffffffffffffffffffffffffffffffff163373ffffffffffffffffffffffffffffffffffffffff1614610189576040517f08c379a000000000000000000000000000000000000000000000000000000000815260040161018090610396565b60405180910390fd5b8173ffffffffffffffffffffffffffffffffffffffff166108fc829081150290604051600060405180830381858888f193505050501580156101cf573d6000803e3d6000fd5b505050565b600073ffffffffffffffffffffffffffffffffffffffff82169050919050565b60006101ff826101d4565b9050919050565b61020f816101f4565b82525050565b600060208201905061022a6000830184610206565b92915050565b6000819050919050565b61024381610230565b82525050565b600060208201905061025e600083018461023a565b92915050565b600080fd5b6000610274826101d4565b9050919050565b61028481610269565b811461028f57600080fd5b50565b6000813590506102a18161027b565b92915050565b6102b081610230565b81146102bb57600080fd5b50565b6000813590506102cd816102a7565b92915050565b600080604083850312156102ea576102e9610264565b5b60006102f885828601610292565b9250506020610309858286016102be565b9150509250929050565b600082825260208201905092915050565b7f736f6c6f20696c2070726f706965746172696f2070756f206d616e646172652060008201527f6574686572000000000000000000000000000000000000000000000000000000602082015250565b6000610380602583610313565b915061038b82610324565b604082019050919050565b600060208201905081810360008301526103af81610373565b905091905056fea26469706673582212200b09c3760d2043f51a0c9844b0e382849760bee7e57ce33180d262aa135c1c5e64736f6c63430008130033",
  "linkReferences": {},
  "deployedLinkReferences": {}
}